:1000000028C0C1C241C040C03FC03EC03DC08DC23B
:100010003BC03AC039C038C037C036C09DC234C0BA
:1000200033C032C031C030C02FC02EC02DC02CC054
:100030002BC02AC030303A35343A313400323031B6
:10004000382D31322D31390033363600312E302EF5
:10005000300011241FBECFEFD4E0DEBFCDBF11E0D2
:10006000A0E0B1E0E4EEF7E002C005900D92AC3202
:10007000B107D9F721E0ACE2B1E001C01D92AC3389
:10008000B207E1F7D7D1ACC3BBCF389A399A3A9AC5
:100090003B9A089580FF02C0439A01C0439881FFB4
:1000A00002C0429A01C0429882FF02C0419A01C038
:1000B000419883FF02C0409A089540980895CF93D5
:1000C000C82FE3DF449A8C2F82958F70E3DF44982A
:1000D000449A8C2FDFDF449888E28A95F1F7CF911C
:1000E00008954598ECCF459AEACFCF93DF93EC0182
:1000F0008991882339F090E8980F983008F4877038
:10010000F2DFF6CFDF91CF910895CF93DF93CDB794
:10011000DEB761970FB6F894DEBF0FBECDBF4AE0E1
:10012000BE016F5F7F4F29D3E0DF61960FB6F89471
:10013000DEBF0FBECDBFDF91CF910895813009F4AE
:1001400080E46058860FCDCF81E0CBDF88EC94E06F
:100150000197F1F700C00000089597DF3D9A3C9A9F
:10016000459A449A85EA9EE00197F1F700C00000A5
:10017000449845984698449A83E08CDF449880E000
:1001800094E00197F1F700C00000449A83E082DF19
:10019000449891E29A95F1F70000449A83E07ADF5F
:1001A000449881E28A95F1F70000449A82E072DF78
:1001B000449891E29A95F1F7000088E292DF88E096
:1001C00090DF8CE08EDF86E08CDFBECF83ED90E3A6
:1001D0000197F1F700C000005C9800C05C9A93E0C2
:1001E0009A95F1F700005C98089560913001709144
:1001F0003101809132019091330120E030E040E7FD
:1002000051E4F8D187FF03C084E690E07DC060919F
:10021000300170913101809132019091330120E0E1
:1002200030E040EA51E4E6D187FF03C088EC90E07B
:100230006BC06091300170913101809132019091D9
:10024000330120E030E048EC51E4D4D187FF03C013
:1002500080E991E059C06091300170913101809145
:1002600032019091330120E030E040EF51E4C2D1FF
:1002700087FF03C08CEB92E047C060913001709122
:100280003101809132019091330120E030E04CE067
:1002900052E4B0D187FF03C088EE93E035C060918F
:1002A000300170913101809132019091330120E051
:1002B00030E040E252E49ED187FF03C088E795E03A
:1002C00023C0609130017091310180913201909191
:1002D000330120E030E044E352E48CD187FF03C0D7
:1002E00084EA96E011C060913001709131018091F3
:1002F00032019091330120E030E048E452E47AD1B9
:1003000087FF06C080ED97E090933501809334011C
:1003100060913001709131018091320190913301EF
:1003200020E030E048E452E424D2181644F48091EE
:1003300070008D7F809370002998289A72C0609118
:10034000300170913101809132019091330120E0B0
:1003500030E048E452E44ED118160CF44CC06091E1
:10036000300170913101809132019091330120E090
:1003700030E040E251E4FDD187FD3DC08091700046
:1003800082608093700080912C0190912D01892BC7
:10039000A1F48091360190913701803991401CF48D
:1003A000299A28980AC081E090E090932D018093CB
:1003B0002C01109237011092360180912C019091FE
:1003C0002D010197B1F520913601309137018091CF
:1003D0003401909135012817390724F4299881E0D8
:1003E00085B9089510922D0110922C0110923701B9
:1003F0001092360108956091300170913101809121
:1004000032019091330120E030E040E251E4F2D03B
:1004100087FF0FC0809170008D7F80937000299AB4
:100420002898109237011092360110922D011092E7
:100430002C010895549A5A98219A209A8EDEE89AAF
:100440008091690081608093690084B5826084BD79
:1004500088E387BD8091B00082608093B0008CE714
:100460008093B300789485B5826085BD8091B1009A
:1004700084608093B100AADE8091380190913901A7
:1004800097FD0196BC0175956795882777FD809546
:10049000982FE7D06093300170933101809332013F
:1004A00090933301A2DE60E080E048DE80E091E0DE
:1004B0001CDE69E080E042DE88E091E016DE60E06C
:1004C00081E03CDE8FE091E010DE69E081E036DE25
:1004D0008AE191E00ADE6AE081E030DE609130017D
:1004E00070913101809132019091330120E030E030
:1004F00048E452E47FD087FF11C0609130017091D1
:100500003101809132019091330178D0CB01FDDD32
:100510006EE081E013DE80E291E005C069E081E0F9
:100520000DDE83E291E0E1DDA6CF1F920F920FB6C0
:100530000F9211248F939F938091360190913701F0
:10054000019690933701809336019F918F910F9080
:100550000FBE0F901F9018951F920F920FB60F921B
:1005600011248F939F9380913A0190913B010196C2
:1005700090933B0180933A019F918F910F900FBE12
:100580000F901F9018951F920F920FB60F92112483
:100590008F939F9380912E0190912F01009761F48A
:1005A00080916E00826080936E0081E090E0909375
:1005B0002F0180932E0117C00197A9F480916E003E
:1005C0008D7F80936E0080913A0190913B019093D2
:1005D00039018093380110923B0110923A01109238
:1005E0002F0110922E019F918F910F900FBE0F90AF
:1005F0001F90189571D008F481E0089504D0689494
:10060000B111B1C0089594D088F09F5790F0B92FE0
:100610009927B751A0F0D1F0660F771F881F991F57
:100620001AF0BA95C9F712C0B13081F09BD0B1E091
:10063000089598C0672F782F8827B85F39F0B93FA1
:10064000CCF3869577956795B395D9F73EF4909559
:100650008095709561957F4F8F4F9F4F0895E894D7
:1006600009C097FB3EF490958095709561957F4FFA
:100670008F4F9F4F9923A9F0F92F96E9BB279395A8
:10068000F695879577956795B795F111F8CFFAF4B8
:10069000BB0F11F460FF1BC06F5F7F4F8F4F9F4FE9
:1006A00016C0882311F096E911C0772321F09EE847
:1006B000872F762F05C0662371F096E8862F70E0AD
:1006C00060E02AF09A95660F771F881FDAF7880F87
:1006D0009695879597F90895990F0008550FAA0BDD
:1006E000E0E8FEEF16161706E807F907C0F0121645
:1006F0001306E407F50798F0621B730B840B950B48
:1007000039F40A2661F0232B242B252B21F408959C
:100710000A2609F4A140A6958FEF811D811D089539
:1007200057FD9058440F551F59F05F3F71F04795A2
:10073000880F97FB991F61F09F3F79F08795089587
:10074000121613061406551FF2CF4695F1DF08C0A6
:10075000161617061806991FF1CF869571056105C3
:1007600008940895E894BB2766277727CB0197F96B
:100770000895B2DF08F48FEF0895BB274A3031F4B3
:10078000992322F4BDE2909581959F4F01C0BB272C
:10079000FB015527AA27880F991FAA1FA41710F03D
:1007A000A41B83955051B9F7A05DAA3308F0A95D49
:1007B000A193009779F7B111B1931192CB0100C0C9
:1007C000DC01FC01672F71917723E1F7329704C0B8
:1007D0007C916D9370836291AE17BF07C8F3089543
:0407E000F894FFCFBB
:1007E4005061726B696E670053656E736F7200447B
:1007F400697374616E63653A200020202020200014
:0C080400636D00746F6F2066617200006D
:00000001FF
